{
    "abi": [
        {
            "type": "function",
            "name": "submitReport",
            "inputs": [
                {
                    "name": "reasonHash",
                    "type": "bytes32",
                    "internalType": "bytes32"
                },
                {
                    "name": "isScam",
                    "type": "bool",
                    "internalType": "bool"
                }
            ],
            "outputs": [],
            "stateMutability": "nonpayable"
        },
        {
            "type": "event",
            "name": "ScamReportSubmitted",
            "inputs": [
                {
                    "name": "reporter",
                    "type": "address",
                    "indexed": true,
                    "internalType": "address"
                },
                {
                    "name": "reasonHash",
                    "type": "bytes32",
                    "indexed": true,
                    "internalType": "bytes32"
                },
                {
                    "name": "isScam",
                    "type": "bool",
                    "indexed": false,
                    "internalType": "bool"
                }
            ],
            "anonymous": false
        },
        {
            "type": "error",
            "name": "EmptyReasonHash",
            "inputs": []
        }
    ],
    "bytecode": {
        "object": "0x608060405234801561000f575f80fd5b506101df8061001d5f395ff3fe608060405234801561000f575f80fd5b5060043610610029575f3560e01c8063bbd89cfb1461002d575b5f80fd5b61004760048036038101906100429190610143565b610049565b005b5f801b8203610084576040517f817f48ed00000000000000000000000000000000000000000000000000000000815260040160405180910390fd5b813373ffffffffffffffffffffffffffffffffffffffff167f79894f1cff1f4559d5bdf71389e2213f93539a2f03ba03edceec7927accb9ae5836040516100cb9190610190565b60405180910390a35050565b5f80fd5b5f819050919050565b6100ed816100db565b81146100f7575f80fd5b50565b5f81359050610108816100e4565b92915050565b5f8115159050919050565b6101228161010e565b811461012c575f80fd5b50565b5f8135905061013d81610119565b92915050565b5f8060408385031215610159576101586100d7565b5b5f610166858286016100fa565b92505060206101778582860161012f565b9150509250929050565b61018a8161010e565b82525050565b5f6020820190506101a35f830184610181565b9291505056fea2646970667358221220b8b07e3e6c97b5f22f65b596576f23d740e89deea8123507e9c3c8616fab8baa64736f6c63430008180033",
        "linkReferences": {}
    },
    "methodIdentifiers": {
        "submitReport(bytes32,bool)": "bbd89cfb"
    },
    "id": 21
}